{
  "contractName": "DIDManager",
  "abi": [
    {
      "anonymous": false,
      "inputs": [
        {
          "indexed": false,
          "internalType": "string",
          "name": "did",
          "type": "string"
        },
        {
          "indexed": false,
          "internalType": "address",
          "name": "owner",
          "type": "address"
        }
      ],
      "name": "DIDRegistered",
      "type": "event"
    },
    {
      "inputs": [
        {
          "internalType": "string",
          "name": "did",
          "type": "string"
        },
        {
          "internalType": "string",
          "name": "didDocument",
          "type": "string"
        }
      ],
      "name": "registerDID",
      "outputs": [],
      "stateMutability": "nonpayable",
      "type": "function"
    },
    {
      "inputs": [
        {
          "internalType": "string",
          "name": "did",
          "type": "string"
        }
      ],
      "name": "resolveDID",
      "outputs": [
        {
          "internalType": "string",
          "name": "",
          "type": "string"
        }
      ],
      "stateMutability": "view",
      "type": "function",
      "constant": true
    }
  ],
  "bytecode": "0x608060405234801561001057600080fd5b506108b5806100206000396000f3fe608060405234801561001057600080fd5b50600436106100365760003560e01c80637e5c39e91461003b5780639d7f0bbf14610057575b600080fd5b610055600480360381019061005091906104d4565b610087565b005b610071600480360381019061006c9190610493565b610224565b60405161007e9190610650565b60405180910390f35b600073ffffffffffffffffffffffffffffffffffffffff166000836040516100af9190610639565b908152602001604051809103902060000160009054906101000a900473ffffffffffffffffffffffffffffffffffffffff1673ffffffffffffffffffffffffffffffffffffffff1614610137576040517f08c379a000000000000000000000000000000000000000000000000000000000815260040161012e906106c2565b60405180910390fd5b60405180604001604052803373ffffffffffffffffffffffffffffffffffffffff168152602001828152506000836040516101729190610639565b908152602001604051809103902060008201518160000160006101000a81548173ffffffffffffffffffffffffffffffffffffffff021916908373ffffffffffffffffffffffffffffffffffffffff16021790555060208201518160010190805190602001906101e3929190610388565b509050507fd59e4d670f6e249831d6f8ce560f47ced54b3f4203e2d0050dc495fd6b919dd28233604051610218929190610672565b60405180910390a15050565b6060600073ffffffffffffffffffffffffffffffffffffffff1660008360405161024e9190610639565b908152602001604051809103902060000160009054906101000a900473ffffffffffffffffffffffffffffffffffffffff1673ffffffffffffffffffffffffffffffffffffffff1614156102d7576040517f08c379a00000000000000000000000000000000000000000000000000000000081526004016102ce906106a2565b60405180910390fd5b6000826040516102e79190610639565b90815260200160405180910390206001018054610303906107de565b80601f016020809104026020016040519081016040528092919081815260200182805461032f906107de565b801561037c5780601f106103515761010080835404028352916020019161037c565b820191906000526020600020905b81548152906001019060200180831161035f57829003601f168201915b50505050509050919050565b828054610394906107de565b90600052602060002090601f0160209004810192826103b657600085556103fd565b82601f106103cf57805160ff19168380011785556103fd565b828001600101855582156103fd579182015b828111156103fc5782518255916020019190600101906103e1565b5b50905061040a919061040e565b5090565b5b8082111561042757600081600090555060010161040f565b5090565b600061043e61043984610713565b6106e2565b90508281526020810184848401111561045657600080fd5b61046184828561079c565b509392505050565b600082601f83011261047a57600080fd5b813561048a84826020860161042b565b91505092915050565b6000602082840312156104a557600080fd5b600082013567ffffffffffffffff8111156104bf57600080fd5b6104cb84828501610469565b91505092915050565b600080604083850312156104e757600080fd5b600083013567ffffffffffffffff81111561050157600080fd5b61050d85828601610469565b925050602083013567ffffffffffffffff81111561052a57600080fd5b61053685828601610469565b9150509250929050565b6105498161076a565b82525050565b600061055a82610743565b610564818561074e565b93506105748185602086016107ab565b61057d8161086e565b840191505092915050565b600061059382610743565b61059d818561075f565b93506105ad8185602086016107ab565b80840191505092915050565b60006105c660128361074e565b91507f444944206e6f74207265676973746572656400000000000000000000000000006000830152602082019050919050565b600061060660168361074e565b91507f44494420616c72656164792072656769737465726564000000000000000000006000830152602082019050919050565b60006106458284610588565b915081905092915050565b6000602082019050818103600083015261066a818461054f565b905092915050565b6000604082019050818103600083015261068c818561054f565b905061069b6020830184610540565b9392505050565b600060208201905081810360008301526106bb816105b9565b9050919050565b600060208201905081810360008301526106db816105f9565b9050919050565b6000604051905081810181811067ffffffffffffffff821117156107095761070861083f565b5b8060405250919050565b600067ffffffffffffffff82111561072e5761072d61083f565b5b601f19601f8301169050602081019050919050565b600081519050919050565b600082825260208201905092915050565b600081905092915050565b60006107758261077c565b9050919050565b600073ffffffffffffffffffffffffffffffffffffffff82169050919050565b82818337600083830152505050565b60005b838110156107c95780820151818401526020810190506107ae565b838111156107d8576000848401525b50505050565b600060028204905060018216806107f657607f821691505b6020821081141561080a57610809610810565b5b50919050565b7f4e487b7100000000000000000000000000000000000000000000000000000000600052602260045260246000fd5b7f4e487b7100000000000000000000000000000000000000000000000000000000600052604160045260246000fd5b6000601f19601f830116905091905056fea2646970667358221220b9a149cc6527a5a1e0b1e48c80260cc2d1b1f5b4a4d68948a1f29872f03d3ccb64736f6c63430008000033",
  "immutableReferences": {},
  "source": "// SPDX-License-Identifier: MIT\r\npragma solidity ^0.8.0;\r\n\r\ncontract DIDManager {\r\n    struct DID {\r\n        address owner;\r\n        string didDocument;\r\n    }\r\n\r\n    mapping(string => DID) private didRegistry;\r\n\r\n    event DIDRegistered(string did, address owner);\r\n\r\n    function registerDID(string memory did, string memory didDocument) public {\r\n        require(didRegistry[did].owner == address(0), \"DID already registered\");\r\n        didRegistry[did] = DID(msg.sender, didDocument);\r\n        emit DIDRegistered(did, msg.sender);\r\n    }\r\n\r\n    function resolveDID(string memory did) public view returns (string memory) {\r\n        require(didRegistry[did].owner != address(0), \"DID not registered\");\r\n        return didRegistry[did].didDocument;\r\n    }\r\n}\r\n",
  "sourcePath": "E:\\BE\\3\\Blockchain\\Project\\privacy-preserving-data-sharing\\contracts\\DIDManager.sol",
  "compiler": {
    "name": "solc",
    "version": "0.8.0+commit.c7dfd78e.Emscripten.clang"
  },
  "schemaVersion": "3.4.16",
  "updatedAt": "2024-06-12T17:14:43.987Z",
  "networkType": "ethereum",
  "devdoc": {
    "kind": "dev",
    "methods": {},
    "version": 1
  },
  "userdoc": {
    "kind": "user",
    "methods": {},
    "version": 1
  }
}